{
  "_format": "hh-sol-artifact-1",
  "contractName": "Splitwise",
  "sourceName": "contracts/mycontract.sol",
  "abi": [
    {
      "inputs": [
        {
          "internalType": "address",
          "name": "creditor",
          "type": "address"
        },
        {
          "internalType": "uint32",
          "name": "amount",
          "type": "uint32"
        },
        {
          "internalType": "address[]",
          "name": "path",
          "type": "address[]"
        }
      ],
      "name": "addIOU",
      "outputs": [],
      "stateMutability": "nonpayable",
      "type": "function"
    },
    {
      "inputs": [
        {
          "internalType": "address",
          "name": "debtor",
          "type": "address"
        },
        {
          "internalType": "address",
          "name": "creditor",
          "type": "address"
        }
      ],
      "name": "lookup",
      "outputs": [
        {
          "internalType": "uint32",
          "name": "ret",
          "type": "uint32"
        }
      ],
      "stateMutability": "view",
      "type": "function"
    }
  ],
  "bytecode": "0x608060405234801561001057600080fd5b506108c7806100206000396000f3fe608060405234801561001057600080fd5b50600436106100365760003560e01c8063713584a61461003b578063eeb567f41461006b575b600080fd5b610055600480360381019061005091906104cf565b610087565b604051610062919061052e565b60405180910390f35b610085600480360381019061008091906106ce565b61011d565b005b60008060008473ffffffffffffffffffffffffffffffffffffffff1673ffffffffffffffffffffffffffffffffffffffff16815260200190815260200160002060008373ffffffffffffffffffffffffffffffffffffffff1673ffffffffffffffffffffffffffffffffffffffff16815260200190815260200160002060009054906101000a900463ffffffff16905092915050565b60008263ffffffff161161013057600080fd5b6000815111156103905760008290506000600190505b82518110156102575760008360018361015f9190610776565b815181106101705761016f6107aa565b5b60200260200101519050600084838151811061018f5761018e6107aa565b5b6020026020010151905060008060008473ffffffffffffffffffffffffffffffffffffffff1673ffffffffffffffffffffffffffffffffffffffff16815260200190815260200160002060008373ffffffffffffffffffffffffffffffffffffffff1673ffffffffffffffffffffffffffffffffffffffff16815260200190815260200160002060009054906101000a900463ffffffff1690508463ffffffff168163ffffffff161015610241578094505b505050808061024f906107d9565b915050610146565b506000600190505b825181101561037f576000836001836102789190610776565b81518110610289576102886107aa565b5b6020026020010151905060008483815181106102a8576102a76107aa565b5b60200260200101519050836000808473ffffffffffffffffffffffffffffffffffffffff1673ffffffffffffffffffffffffffffffffffffffff16815260200190815260200160002060008373ffffffffffffffffffffffffffffffffffffffff1673ffffffffffffffffffffffffffffffffffffffff16815260200190815260200160002060008282829054906101000a900463ffffffff1661034c9190610821565b92506101000a81548163ffffffff021916908363ffffffff16021790555050508080610377906107d9565b91505061025f565b50808361038c9190610821565b9250505b60008263ffffffff16031561045857816000803373ffffffffffffffffffffffffffffffffffffffff1673ffffffffffffffffffffffffffffffffffffffff16815260200190815260200160002060008573ffffffffffffffffffffffffffffffffffffffff1673ffffffffffffffffffffffffffffffffffffffff16815260200190815260200160002060008282829054906101000a900463ffffffff166104399190610859565b92506101000a81548163ffffffff021916908363ffffffff1602179055505b505050565b6000604051905090565b600080fd5b600080fd5b600073ffffffffffffffffffffffffffffffffffffffff82169050919050565b600061049c82610471565b9050919050565b6104ac81610491565b81146104b757600080fd5b50565b6000813590506104c9816104a3565b92915050565b600080604083850312156104e6576104e5610467565b5b60006104f4858286016104ba565b9250506020610505858286016104ba565b9150509250929050565b600063ffffffff82169050919050565b6105288161050f565b82525050565b6000602082019050610543600083018461051f565b92915050565b6105528161050f565b811461055d57600080fd5b50565b60008135905061056f81610549565b92915050565b600080fd5b6000601f19601f8301169050919050565b7f4e487b7100000000000000000000000000000000000000000000000000000000600052604160045260246000fd5b6105c38261057a565b810181811067ffffffffffffffff821117156105e2576105e161058b565b5b80604052505050565b60006105f561045d565b905061060182826105ba565b919050565b600067ffffffffffffffff8211156106215761062061058b565b5b602082029050602081019050919050565b600080fd5b600061064a61064584610606565b6105eb565b9050808382526020820190506020840283018581111561066d5761066c610632565b5b835b81811015610696578061068288826104ba565b84526020840193505060208101905061066f565b5050509392505050565b600082601f8301126106b5576106b4610575565b5b81356106c5848260208601610637565b91505092915050565b6000806000606084860312156106e7576106e6610467565b5b60006106f5868287016104ba565b935050602061070686828701610560565b925050604084013567ffffffffffffffff8111156107275761072661046c565b5b610733868287016106a0565b9150509250925092565b6000819050919050565b7f4e487b7100000000000000000000000000000000000000000000000000000000600052601160045260246000fd5b60006107818261073d565b915061078c8361073d565b92508282039050818111156107a4576107a3610747565b5b92915050565b7f4e487b7100000000000000000000000000000000000000000000000000000000600052603260045260246000fd5b60006107e48261073d565b91507fffffffffffffffffffffffffffffffffffffffffffffffffffffffffffffffff820361081657610815610747565b5b600182019050919050565b600061082c8261050f565b91506108378361050f565b9250828203905063ffffffff81111561085357610852610747565b5b92915050565b60006108648261050f565b915061086f8361050f565b9250828201905063ffffffff81111561088b5761088a610747565b5b9291505056fea26469706673582212207001550a071e6a68b1325f20037164a42727cf78e67ae52621505886b9aac62764736f6c63430008110033",
  "linkReferences": {},
  "deployedLinkReferences": {}
}